S014000058494D435F636F6D6D616E642E73726563A1
S113000071C0000079C0000077C0000075C0000016
S113001073C0000071C000006FC000006DC000001C
S11300206BC0000069C0000067C0000065C000002C
S113003063C0000061C000005FC000005DC000003C
S11300405BC0000059C0000057C0000055C000004C
S113005053C0000051C000004FC000004DC000005C
S11300604BC0000049C0000047C0000045C000006C
S113007043C0000041C000003FC000003DC000007C
S11300803BC0000039C0000037C0000035C000008C
S113009033C0000031C000002FC000002DC000009C
S11300A02BC0000029C0000027C0000025C00000AC
S11300B023C0000021C000001FC000001DC00000BC
S11300C01BC0000019C0000017C0000015C00000CC
S11300D013C0000011C000000FC000000DC00000DC
S11300E00BC0000011241FBECFEFD1E2DEBFCDBF95
S11300F000E00CBF7BD086C183CFE0ECF0E09081C0
S113010095FFFDCF8093C6000895E0E3F1E0908170
S113011095FFFDCF809336010895E0E3F1E08081FF
S11301208823ECF78091360108956C5F7F4F65302A
S11301307105E8F0FC013496680F791F8FEF9FEF8B
S11301402191822728E030E0AC0141705527969533
S113015087954130510521F441E0842740EA9427F2
S11301602150310989F7E617F70751F708958FEF02
S11301709FEF0895AF92BF92CF92DF92EF92FF92DA
S11301800F931F93CF93DF93CDB7DEB7C8A4D9A441
S11301908E01025F1F4F7E0182E1E80EF11CF8011F
S11301A081918F01B2DF0E151F05C9F77601560143
S11301B0FAE1AF0EB11C8601B0DFF80181938F0123
S11301C0EA15FB05C9F7F70181917F0196DFAE14AB
S11301D0BF04C9F7C601DF91CF911F910F91FF9022
S11301E0EF90DF90CF90BF90AF900895CF93DF93BF
S11301F0CDB7DEB7C855D1090FB6F894DEBF0FBE30
S1130200CDBF1092300128E1209331019EE09093FC
S113021032011092350188E0809334011092C000BD
S11302202093C1009093C2001092C5008093C40033
S11302300F2EFFE67F2EF02D0F2EF5E66F2EF02DFC
S113024087E68B8F80E78C8F7D8E83E78E8F1F8E62
S113025018A219A21AA21CA21BA28E010F5F1F4F83
S11302601F930F938DB79EB74A970FB6F8949EBF0E
S11302700FBE8DBFADB7BEB711968AE1FE017B9666
S113028001900D928A95E1F775DFFC019AE1D8019E
S113029001900D929A95E1F78D809E80AF80B8848D
S11302A0C984DA849FEFA3EDB0E39150A040B0403D
S11302B0E1F700C000008CE628968FAF28972996B6
S11302C06FAE299786E62A968FAF2A9784E72B96F6
S11302D08FAF2B97FE01E95BFF4F7F018F010C5F0E
S11302E01F4F0FB6F894DEBF0FBECDBFD7018D915F
S11302F07D010BDF0E151F05C9F704E010E00DDFCB
S1130300FCDE01501109D9F7BFEFEDE3F9E4B15078
S1130310E040F040E1F700C0000083E728968FAF8B
S1130320289784E729968FAF29978FE62A968FAF6F
S11303302A9780E72B968FAF2B97CE01895B9F4F2F
S11303407C018C010C5F1F4FD7018D917D01DDDE97
S11303500E151F05C9F704E010E0DFDECEDE015004
S11303601109D9F718C0F70181917F01CEDEE0169B
S1130370F106C9F704E010E0D0DEBFDE0150110938
S1130380D9F7FFEF23ED80E3F15020408040E1F7FF
S113039000C00000FFCF9FEFA3EDB0E39150A04059
S11303A0B040E1F700C000008DE68DAB7EAA86E781
S11303B08FAB68AE89AE9AAEABAEBCAEDEAECDAEA0
S11303C0FE01FF9686E0DF011D928A95E9F76CE055
S11303D070E0CE01C596A9DE27969FAF8EAF279712
S11303E082E1FE01F596DE01A95BBF4F01900D92FB
S11303F08A95E1F7FE01E95BFF4F7F018F010E5EF5
S10B04001F4FB1CFF894FFCFA8
S9030000FC
